{
  "_format": "hh-sol-artifact-1",
  "contractName": "RandomNumberGenerator",
  "sourceName": "contracts/RandomNumberGenerator.sol",
  "abi": [
    {
      "inputs": [
        {
          "internalType": "address",
          "name": "_vrfCoordinator",
          "type": "address"
        },
        {
          "internalType": "address",
          "name": "_linkToken",
          "type": "address"
        }
      ],
      "stateMutability": "nonpayable",
      "type": "constructor"
    },
    {
      "anonymous": false,
      "inputs": [
        {
          "indexed": true,
          "internalType": "address",
          "name": "previousOwner",
          "type": "address"
        },
        {
          "indexed": true,
          "internalType": "address",
          "name": "newOwner",
          "type": "address"
        }
      ],
      "name": "OwnershipTransferred",
      "type": "event"
    },
    {
      "inputs": [],
      "name": "fee",
      "outputs": [
        {
          "internalType": "uint256",
          "name": "",
          "type": "uint256"
        }
      ],
      "stateMutability": "view",
      "type": "function"
    },
    {
      "inputs": [
        {
          "internalType": "uint256",
          "name": "_seed",
          "type": "uint256"
        }
      ],
      "name": "getRandomNumber",
      "outputs": [],
      "stateMutability": "nonpayable",
      "type": "function"
    },
    {
      "inputs": [],
      "name": "keyHash",
      "outputs": [
        {
          "internalType": "bytes32",
          "name": "",
          "type": "bytes32"
        }
      ],
      "stateMutability": "view",
      "type": "function"
    },
    {
      "inputs": [],
      "name": "latestLotteryId",
      "outputs": [
        {
          "internalType": "uint256",
          "name": "",
          "type": "uint256"
        }
      ],
      "stateMutability": "view",
      "type": "function"
    },
    {
      "inputs": [],
      "name": "latestRequestId",
      "outputs": [
        {
          "internalType": "bytes32",
          "name": "",
          "type": "bytes32"
        }
      ],
      "stateMutability": "view",
      "type": "function"
    },
    {
      "inputs": [],
      "name": "owner",
      "outputs": [
        {
          "internalType": "address",
          "name": "",
          "type": "address"
        }
      ],
      "stateMutability": "view",
      "type": "function"
    },
    {
      "inputs": [],
      "name": "pancakeSwapLottery",
      "outputs": [
        {
          "internalType": "address",
          "name": "",
          "type": "address"
        }
      ],
      "stateMutability": "view",
      "type": "function"
    },
    {
      "inputs": [],
      "name": "randomResult",
      "outputs": [
        {
          "internalType": "uint32",
          "name": "",
          "type": "uint32"
        }
      ],
      "stateMutability": "view",
      "type": "function"
    },
    {
      "inputs": [
        {
          "internalType": "bytes32",
          "name": "requestId",
          "type": "bytes32"
        },
        {
          "internalType": "uint256",
          "name": "randomness",
          "type": "uint256"
        }
      ],
      "name": "rawFulfillRandomness",
      "outputs": [],
      "stateMutability": "nonpayable",
      "type": "function"
    },
    {
      "inputs": [],
      "name": "renounceOwnership",
      "outputs": [],
      "stateMutability": "nonpayable",
      "type": "function"
    },
    {
      "inputs": [
        {
          "internalType": "uint256",
          "name": "_fee",
          "type": "uint256"
        }
      ],
      "name": "setFee",
      "outputs": [],
      "stateMutability": "nonpayable",
      "type": "function"
    },
    {
      "inputs": [
        {
          "internalType": "bytes32",
          "name": "_keyHash",
          "type": "bytes32"
        }
      ],
      "name": "setKeyHash",
      "outputs": [],
      "stateMutability": "nonpayable",
      "type": "function"
    },
    {
      "inputs": [
        {
          "internalType": "address",
          "name": "_pancakeSwapLottery",
          "type": "address"
        }
      ],
      "name": "setLotteryAddress",
      "outputs": [],
      "stateMutability": "nonpayable",
      "type": "function"
    },
    {
      "inputs": [
        {
          "internalType": "address",
          "name": "newOwner",
          "type": "address"
        }
      ],
      "name": "transferOwnership",
      "outputs": [],
      "stateMutability": "nonpayable",
      "type": "function"
    },
    {
      "inputs": [],
      "name": "viewLatestLotteryId",
      "outputs": [
        {
          "internalType": "uint256",
          "name": "",
          "type": "uint256"
        }
      ],
      "stateMutability": "view",
      "type": "function"
    },
    {
      "inputs": [],
      "name": "viewRandomResult",
      "outputs": [
        {
          "internalType": "uint32",
          "name": "",
          "type": "uint32"
        }
      ],
      "stateMutability": "view",
      "type": "function"
    },
    {
      "inputs": [
        {
          "internalType": "address",
          "name": "_tokenAddress",
          "type": "address"
        },
        {
          "internalType": "uint256",
          "name": "_tokenAmount",
          "type": "uint256"
        }
      ],
      "name": "withdrawTokens",
      "outputs": [],
      "stateMutability": "nonpayable",
      "type": "function"
    }
  ],
  "bytecode": "0x60c06040523480156200001157600080fd5b5060405162001f2538038062001f25833981810160405281019062000037919062000181565b81818173ffffffffffffffffffffffffffffffffffffffff1660a08173ffffffffffffffffffffffffffffffffffffffff1660601b815250508073ffffffffffffffffffffffffffffffffffffffff1660808173ffffffffffffffffffffffffffffffffffffffff1660601b8152505050506000620000bb6200016260201b60201c565b905080600160006101000a81548173ffffffffffffffffffffffffffffffffffffffff021916908373ffffffffffffffffffffffffffffffffffffffff1602179055508073ffffffffffffffffffffffffffffffffffffffff16600073ffffffffffffffffffffffffffffffffffffffff167f8be0079c531659141344cd1fd0a4f28419497f9722a3daafe3b4186f6b6457e060405160405180910390a350505062000210565b600033905090565b6000815190506200017b81620001f6565b92915050565b600080604083850312156200019557600080fd5b6000620001a5858286016200016a565b9250506020620001b8858286016200016a565b9150509250929050565b6000620001cf82620001d6565b9050919050565b600073ffffffffffffffffffffffffffffffffffffffff82169050919050565b6200020181620001c2565b81146200020d57600080fd5b50565b60805160601c60a05160601c611cdb6200024a6000396000818161068e0152610d620152600081816108a50152610d260152611cdb6000f3fe608060405234801561001057600080fd5b506004361061010b5760003560e01c80638da5cb5b116100a2578063b37217a411610071578063b37217a41461025a578063ddca3f4314610276578063eed8e1ee14610294578063f2fde38b146102b2578063fbe5d917146102ce5761010b565b80638da5cb5b146101e657806394985ddd146102045780639854471014610220578063a1c4f55a1461023c5761010b565b80634bf3057d116100de5780634bf3057d1461018457806361728f39146101a257806369fe0e2d146101c0578063715018a6146101dc5761010b565b806306b091f9146101105780631aa46f591461012c5780632a332b2a1461014a57806342619f6614610166575b600080fd5b61012a600480360381019061012591906111ee565b6102ec565b005b610134610397565b604051610141919061163a565b60405180910390f35b610164600480360381019061015f91906111c5565b61039d565b005b61016e61045d565b60405161017b9190611840565b60405180910390f35b61018c610473565b60405161019991906115b8565b60405180910390f35b6101aa610499565b6040516101b7919061163a565b60405180910390f35b6101da60048036038101906101d591906112b8565b61049f565b005b6101e4610525565b005b6101ee610662565b6040516101fb91906115b8565b60405180910390f35b61021e6004803603810190610219919061127c565b61068c565b005b61023a60048036038101906102359190611253565b610728565b005b6102446107ae565b6040516102519190611840565b60405180910390f35b610274600480360381019061026f91906112b8565b6107c8565b005b61027e6109a5565b60405161028b9190611825565b60405180910390f35b61029c6109ab565b6040516102a99190611825565b60405180910390f35b6102cc60048036038101906102c791906111c5565b6109b1565b005b6102d6610b5d565b6040516102e39190611825565b60405180910390f35b6102f4610b67565b73ffffffffffffffffffffffffffffffffffffffff16610312610662565b73ffffffffffffffffffffffffffffffffffffffff1614610368576040517f08c379a000000000000000000000000000000000000000000000000000000000815260040161035f906117a5565b60405180910390fd5b61039333828473ffffffffffffffffffffffffffffffffffffffff16610b6f9092919063ffffffff16565b5050565b60045481565b6103a5610b67565b73ffffffffffffffffffffffffffffffffffffffff166103c3610662565b73ffffffffffffffffffffffffffffffffffffffff1614610419576040517f08c379a0000000000000000000000000000000000000000000000000000000008152600401610410906117a5565b60405180910390fd5b80600260006101000a81548173ffffffffffffffffffffffffffffffffffffffff021916908373ffffffffffffffffffffffffffffffffffffffff16021790555050565b600560009054906101000a900463ffffffff1681565b600260009054906101000a900473ffffffffffffffffffffffffffffffffffffffff1681565b60035481565b6104a7610b67565b73ffffffffffffffffffffffffffffffffffffffff166104c5610662565b73ffffffffffffffffffffffffffffffffffffffff161461051b576040517f08c379a0000000000000000000000000000000000000000000000000000000008152600401610512906117a5565b60405180910390fd5b8060068190555050565b61052d610b67565b73ffffffffffffffffffffffffffffffffffffffff1661054b610662565b73ffffffffffffffffffffffffffffffffffffffff16146105a1576040517f08c379a0000000000000000000000000000000000000000000000000000000008152600401610598906117a5565b60405180910390fd5b600073ffffffffffffffffffffffffffffffffffffffff16600160009054906101000a900473ffffffffffffffffffffffffffffffffffffffff1673ffffffffffffffffffffffffffffffffffffffff167f8be0079c531659141344cd1fd0a4f28419497f9722a3daafe3b4186f6b6457e060405160405180910390a36000600160006101000a81548173ffffffffffffffffffffffffffffffffffffffff021916908373ffffffffffffffffffffffffffffffffffffffff160217905550565b6000600160009054906101000a900473ffffffffffffffffffffffffffffffffffffffff16905090565b7f000000000000000000000000000000000000000000000000000000000000000073ffffffffffffffffffffffffffffffffffffffff163373ffffffffffffffffffffffffffffffffffffffff161461071a576040517f08c379a0000000000000000000000000000000000000000000000000000000008152600401610711906117c5565b60405180910390fd5b6107248282610bf5565b5050565b610730610b67565b73ffffffffffffffffffffffffffffffffffffffff1661074e610662565b73ffffffffffffffffffffffffffffffffffffffff16146107a4576040517f08c379a000000000000000000000000000000000000000000000000000000000815260040161079b906117a5565b60405180910390fd5b8060038190555050565b6000600560009054906101000a900463ffffffff16905090565b600260009054906101000a900473ffffffffffffffffffffffffffffffffffffffff1673ffffffffffffffffffffffffffffffffffffffff163373ffffffffffffffffffffffffffffffffffffffff1614610858576040517f08c379a000000000000000000000000000000000000000000000000000000000815260040161084f906116e5565b60405180910390fd5b6000801b60035414156108a0576040517f08c379a000000000000000000000000000000000000000000000000000000000815260040161089790611745565b60405180910390fd5b6006547f000000000000000000000000000000000000000000000000000000000000000073ffffffffffffffffffffffffffffffffffffffff166370a08231306040518263ffffffff1660e01b81526004016108fc91906115b8565b60206040518083038186803b15801561091457600080fd5b505afa158015610928573d6000803e3d6000fd5b505050506040513d601f19601f8201168201806040525081019061094c91906112e1565b101561098d576040517f08c379a000000000000000000000000000000000000000000000000000000000815260040161098490611785565b60405180910390fd5b61099c60035460065483610d22565b60048190555050565b60065481565b60075481565b6109b9610b67565b73ffffffffffffffffffffffffffffffffffffffff166109d7610662565b73ffffffffffffffffffffffffffffffffffffffff1614610a2d576040517f08c379a0000000000000000000000000000000000000000000000000000000008152600401610a24906117a5565b60405180910390fd5b600073ffffffffffffffffffffffffffffffffffffffff168173ffffffffffffffffffffffffffffffffffffffff161415610a9d576040517f08c379a0000000000000000000000000000000000000000000000000000000008152600401610a9490611705565b60405180910390fd5b8073ffffffffffffffffffffffffffffffffffffffff16600160009054906101000a900473ffffffffffffffffffffffffffffffffffffffff1673ffffffffffffffffffffffffffffffffffffffff167f8be0079c531659141344cd1fd0a4f28419497f9722a3daafe3b4186f6b6457e060405160405180910390a380600160006101000a81548173ffffffffffffffffffffffffffffffffffffffff021916908373ffffffffffffffffffffffffffffffffffffffff16021790555050565b6000600754905090565b600033905090565b610bf08363a9059cbb60e01b8484604051602401610b8e9291906115d3565b604051602081830303815290604052907bffffffffffffffffffffffffffffffffffffffffffffffffffffffff19166020820180517bffffffffffffffffffffffffffffffffffffffffffffffffffffffff8381831617835250505050610e80565b505050565b8160045414610c39576040517f08c379a0000000000000000000000000000000000000000000000000000000008152600401610c3090611725565b60405180910390fd5b620f424081610c48919061199d565b620f4240610c56919061189e565b600560006101000a81548163ffffffff021916908363ffffffff160217905550600260009054906101000a900473ffffffffffffffffffffffffffffffffffffffff1673ffffffffffffffffffffffffffffffffffffffff166380a061606040518163ffffffff1660e01b8152600401602060405180830381600087803b158015610ce057600080fd5b505af1158015610cf4573d6000803e3d6000fd5b505050506040513d601f19601f82011682018060405250810190610d1891906112e1565b6007819055505050565b60007f000000000000000000000000000000000000000000000000000000000000000073ffffffffffffffffffffffffffffffffffffffff16634000aea07f0000000000000000000000000000000000000000000000000000000000000000858786604051602001610d95929190611655565b6040516020818303038152906040526040518463ffffffff1660e01b8152600401610dc2939291906115fc565b602060405180830381600087803b158015610ddc57600080fd5b505af1158015610df0573d6000803e3d6000fd5b505050506040513d601f19601f82011682018060405250810190610e14919061122a565b506000610e358584306000808a815260200190815260200160002054610f47565b9050600160008087815260200190815260200160002054610e56919061189e565b60008087815260200190815260200160002081905550610e768582610f83565b9150509392505050565b6000610ee2826040518060400160405280602081526020017f5361666545524332303a206c6f772d6c6576656c2063616c6c206661696c65648152508573ffffffffffffffffffffffffffffffffffffffff16610fb69092919063ffffffff16565b9050600081511115610f425780806020019051810190610f02919061122a565b610f41576040517f08c379a0000000000000000000000000000000000000000000000000000000008152600401610f3890611805565b60405180910390fd5b5b505050565b600084848484604051602001610f60949392919061167e565b6040516020818303038152906040528051906020012060001c9050949350505050565b60008282604051602001610f98929190611575565b60405160208183030381529060405280519060200120905092915050565b6060610fc58484600085610fce565b90509392505050565b606082471015611013576040517f08c379a000000000000000000000000000000000000000000000000000000000815260040161100a90611765565b60405180910390fd5b61101c856110e2565b61105b576040517f08c379a0000000000000000000000000000000000000000000000000000000008152600401611052906117e5565b60405180910390fd5b6000808673ffffffffffffffffffffffffffffffffffffffff16858760405161108491906115a1565b60006040518083038185875af1925050503d80600081146110c1576040519150601f19603f3d011682016040523d82523d6000602084013e6110c6565b606091505b50915091506110d68282866110f5565b92505050949350505050565b600080823b905060008111915050919050565b6060831561110557829050611155565b6000835111156111185782518084602001fd5b816040517f08c379a000000000000000000000000000000000000000000000000000000000815260040161114c91906116c3565b60405180910390fd5b9392505050565b60008135905061116b81611c49565b92915050565b60008151905061118081611c60565b92915050565b60008135905061119581611c77565b92915050565b6000813590506111aa81611c8e565b92915050565b6000815190506111bf81611c8e565b92915050565b6000602082840312156111d757600080fd5b60006111e58482850161115c565b91505092915050565b6000806040838503121561120157600080fd5b600061120f8582860161115c565b92505060206112208582860161119b565b9150509250929050565b60006020828403121561123c57600080fd5b600061124a84828501611171565b91505092915050565b60006020828403121561126557600080fd5b600061127384828501611186565b91505092915050565b6000806040838503121561128f57600080fd5b600061129d85828601611186565b92505060206112ae8582860161119b565b9150509250929050565b6000602082840312156112ca57600080fd5b60006112d88482850161119b565b91505092915050565b6000602082840312156112f357600080fd5b6000611301848285016111b0565b91505092915050565b611313816118f4565b82525050565b61132281611912565b82525050565b61133961133482611912565b611989565b82525050565b600061134a8261185b565b6113548185611871565b9350611364818560208601611956565b61136d81611a2c565b840191505092915050565b60006113838261185b565b61138d8185611882565b935061139d818560208601611956565b80840191505092915050565b60006113b482611866565b6113be818561188d565b93506113ce818560208601611956565b6113d781611a2c565b840191505092915050565b60006113ef60178361188d565b91506113fa82611a3d565b602082019050919050565b600061141260268361188d565b915061141d82611a66565b604082019050919050565b6000611435600f8361188d565b915061144082611ab5565b602082019050919050565b600061145860188361188d565b915061146382611ade565b602082019050919050565b600061147b60268361188d565b915061148682611b07565b604082019050919050565b600061149e60168361188d565b91506114a982611b56565b602082019050919050565b60006114c160208361188d565b91506114cc82611b7f565b602082019050919050565b60006114e4601f8361188d565b91506114ef82611ba8565b602082019050919050565b6000611507601d8361188d565b915061151282611bd1565b602082019050919050565b600061152a602a8361188d565b915061153582611bfa565b604082019050919050565b6115498161193c565b82525050565b61156061155b8261193c565b611993565b82525050565b61156f81611946565b82525050565b60006115818285611328565b602082019150611591828461154f565b6020820191508190509392505050565b60006115ad8284611378565b915081905092915050565b60006020820190506115cd600083018461130a565b92915050565b60006040820190506115e8600083018561130a565b6115f56020830184611540565b9392505050565b6000606082019050611611600083018661130a565b61161e6020830185611540565b8181036040830152611630818461133f565b9050949350505050565b600060208201905061164f6000830184611319565b92915050565b600060408201905061166a6000830185611319565b6116776020830184611540565b9392505050565b60006080820190506116936000830187611319565b6116a06020830186611540565b6116ad604083018561130a565b6116ba6060830184611540565b95945050505050565b600060208201905081810360008301526116dd81846113a9565b905092915050565b600060208201905081810360008301526116fe816113e2565b9050919050565b6000602082019050818103600083015261171e81611405565b9050919050565b6000602082019050818103600083015261173e81611428565b9050919050565b6000602082019050818103600083015261175e8161144b565b9050919050565b6000602082019050818103600083015261177e8161146e565b9050919050565b6000602082019050818103600083015261179e81611491565b9050919050565b600060208201905081810360008301526117be816114b4565b9050919050565b600060208201905081810360008301526117de816114d7565b9050919050565b600060208201905081810360008301526117fe816114fa565b9050919050565b6000602082019050818103600083015261181e8161151d565b9050919050565b600060208201905061183a6000830184611540565b92915050565b60006020820190506118556000830184611566565b92915050565b600081519050919050565b600081519050919050565b600082825260208201905092915050565b600081905092915050565b600082825260208201905092915050565b60006118a98261193c565b91506118b48361193c565b9250827fffffffffffffffffffffffffffffffffffffffffffffffffffffffffffffffff038211156118e9576118e86119ce565b5b828201905092915050565b60006118ff8261191c565b9050919050565b60008115159050919050565b6000819050919050565b600073ffffffffffffffffffffffffffffffffffffffff82169050919050565b6000819050919050565b600063ffffffff82169050919050565b60005b83811015611974578082015181840152602081019050611959565b83811115611983576000848401525b50505050565b6000819050919050565b6000819050919050565b60006119a88261193c565b91506119b38361193c565b9250826119c3576119c26119fd565b5b828206905092915050565b7f4e487b7100000000000000000000000000000000000000000000000000000000600052601160045260246000fd5b7f4e487b7100000000000000000000000000000000000000000000000000000000600052601260045260246000fd5b6000601f19601f8301169050919050565b7f4f6e6c792050616e63616b65537761704c6f7474657279000000000000000000600082015250565b7f4f776e61626c653a206e6577206f776e657220697320746865207a65726f206160008201527f6464726573730000000000000000000000000000000000000000000000000000602082015250565b7f57726f6e67207265717565737449640000000000000000000000000000000000600082015250565b7f4d75737420686176652076616c6964206b657920686173680000000000000000600082015250565b7f416464726573733a20696e73756666696369656e742062616c616e636520666f60008201527f722063616c6c0000000000000000000000000000000000000000000000000000602082015250565b7f4e6f7420656e6f756768204c494e4b20746f6b656e7300000000000000000000600082015250565b7f4f776e61626c653a2063616c6c6572206973206e6f7420746865206f776e6572600082015250565b7f4f6e6c7920565246436f6f7264696e61746f722063616e2066756c66696c6c00600082015250565b7f416464726573733a2063616c6c20746f206e6f6e2d636f6e7472616374000000600082015250565b7f5361666545524332303a204552433230206f7065726174696f6e20646964206e60008201527f6f74207375636365656400000000000000000000000000000000000000000000602082015250565b611c52816118f4565b8114611c5d57600080fd5b50565b611c6981611906565b8114611c7457600080fd5b50565b611c8081611912565b8114611c8b57600080fd5b50565b611c978161193c565b8114611ca257600080fd5b5056fea2646970667358221220a6784031ae961c2e5c234b579098ffccab2dfad774f997afa05575c03672195e64736f6c63430008040033",
  "linkReferences": {},
  "deployedLinkReferences": {}
}